:020000040800F2
:1000000000280020F50E0008650E00086B0E0008A1
:10001000710E0008770E00087D0E00080000000039
:10002000000000000000000000000000830E000837
:100030008F0E0008000000009B0E0008A70E0008AD
:100040003D0F00083D0F00083D0F00083D0F000860
:100050003D0F00083D0F00083D0F00083D0F000850
:100060003D0F00083D0F00083D0F00083D0F000840
:100070003D0F00083D0F00083D0F00083D0F000830
:100080003D0F00083D0F00083D0F00083D0F000820
:100090003D0F00083D0F00083D0F00083D0F000810
:1000A0003D0F00083D0F00083D0F00083D0F000800
:1000B000B50E00083D0F0008000000003D0F0008CD
:1000C0003D0F000800000000000000003D0F000888
:1000D000000000003D0F00083D0F00080000000078
:1000E0003D0F00083D0F00083D0F00080000000014
:1000F0000000000000000000000000000000000000
:0C01000000000000000000005FF808F1A3
:10010C0010B5054C237833B9044B13B10448AFF345
:10011C0000800123237010BD20000020000000008F
:10012C009425000808B5034B1BB103490348AFF3F2
:10013C00008008BD00000000240000209425000869
:10014C0080B586B000AF7860344A07F10C0307CA5B
:10015C0003C31A8007F10C027B6813441B78FB75F0
:10016C00FB7D03F00103BB75BB7D1A464FF4007198
:10017C002B4801F0E0F9FB7D5B08DBB203F00103D7
:10018C00BB75BB7D1A464FF48061254801F0D3F94D
:10019C00FB7D9B08DBB203F00103BB75BB7D1A46EC
:1001AC004FF400611E4801F0C6F9FB7DDB08DBB2A1
:1001BC0003F00103BB75BB7D1A464FF48051184800
:1001CC0001F0B9F9FB7D1B09DBB203F00103BB7530
:1001DC00BB7D1A464FF40051114801F0ACF9FB7D80
:1001EC005B09DBB203F00103BB75BB7D1A464FF410
:1001FC0080410B4801F09FF9FB7D9B09DBB203F0BA
:10020C000103BB75BB7D1A464FF40041044801F055
:10021C0092F900BF1837BD4680BD00BFAC25000861
:10022C00000C014080B586B000AF7860304A07F111
:10023C000C0307CA03C31A8007F10C027B68134432
:10024C001B78FB75FB7D03F00103BB75BB7D1A4668
:10025C000121284801F06FF9FB7D5B08DBB203F04C
:10026C000103BB75BB7D1A460221224801F063F9DC
:10027C00FB7D9B08DBB203F00103BB75BB7D1A460B
:10028C0004211C4801F057F9FB7DDB08DBB203F0BD
:10029C000103BB75BB7D1A460821164801F04BF9CA
:1002AC00FB7D1B09DBB203F00103BB75BB7D1A465A
:1002BC001021104801F03FF9FB7D5B09DBB203F024
:1002CC000103BB75BB7D1A4620210A4801F033F9A6
:1002DC00FB7D9B09DBB203F00103BB75BB7D1A46AA
:1002EC004021044801F027F900BF1837BD4680BDF6
:1002FC00AC2500080008014080B586B000AF7860DE
:10030C00334A07F10C0307CA03C31A8007F10C0226
:10031C007B6813441B78FB75FB7D03F00103BB75F5
:10032C00BB7D1A4680212B4801F005F9FB7D5B084B
:10033C00DBB203F00103BB75BB7D1A464FF4807131
:10034C00244801F0F8F8FB7D9B08DBB203F00103B5
:10035C00BB75BB7D1A464FF400711E4801F0EBF8DB
:10036C00FB7DDB08DBB203F00103BB75BB7D1A46DA
:10037C004FF48061174801F0DEF8FB7D1B09DBB2FE
:10038C0003F00103BB75BB7D1A464FF400611148A5
:10039C0001F0D1F8FB7D5B09DBB203F00103BB7507
:1003AC00BB7D1A464FF480510A4801F0C4F8FB7D1E
:1003BC009B09DBB203F00103BB75BB7D1A464FF4FE
:1003CC000051044801F0B7F800BF1837BD4680BD96
:1003DC00AC2500080008014080B582B000AF786001
:1003EC0039603B68012B3BD100224FF40041394866
:1003FC0001F0A1F87B68092B09DC0020FFF7A0FEB7
:10040C007868FFF70FFF7868FFF776FF5DE07A6892
:10041C00314B83FB02139910D317C91A0B469B005F
:10042C000B445B00D11A0846FFF7FCFE7A682A4B96
:10043C0083FB02139910D317C91A0B469B000B446C
:10044C005B00D11A0846FFF757FF7B68224A82FBF4
:10045C0003129210DB17D31A1846FFF771FE34E023
:10046C003B68022B05D03B68032B02D03B68042B66
:10047C002BD101224FF40041164801F05CF87B6847
:10048C00092B06DC0020FFF75BFE7868FFF7CAFE3D
:10049C0018E07A68104B83FB02139910D317C91A12
:1004AC000B469B000B445B00D11A0846FFF7BAFEC3
:1004BC007B68094A82FB03129210DB17D31A184689
:1004CC00FFF73EFE3868FFF717FF00BF0837BD4641
:1004DC0080BD00BF000801406766666680B485B0C9
:1004EC0000AFF860B9607A603B60FB681A78BB6853
:1004FC001B781344DAB27B681B781344DAB23B687E
:10050C001A7000BF1437BD4680BC704780B582B0EE
:10051C0000AF0023FB7163E0FB79934AD35C012BA2
:10052C0002D0022B19D058E0FB79002B02D18F4B53
:10053C0000221A70FB79184600F08AFA0346012B48
:10054C0048D1FB79184600F069FA0346002B41D1DB
:10055C00FB79854A0221D1543CE0844B1B78002B5B
:10056C0025D1FB79002B22D1814B1B78013B032B2E
:10057C001AD801A252F823F0950500089D05000831
:10058C00A5050008AD050008794B02221A700BE096
:10059C00774B03221A7007E0754B04221A7003E0A4
:1005AC00734B01221A7000BF704B01221A70FB7939
:1005BC00184600F04DFA0346002B0DD1FB79184676
:1005CC0000F02CFA0346012B06D1FB79664A012177
:1005DC00D15401E000BF00E000BFFB790133FB7197
:1005EC00FB79022B98D900F0E3F90346002B0CD0D1
:1005FC00604B1B68622B05DC5E4B1B6801335D4A4C
:10060C00136002E05B4B01221A60594B1B78013BD3
:10061C00032B00F2F68001A252F823F039060008F1
:10062C008D060008010700089907000800F0E4F99E
:10063C000346002B1AD0504B18784F4B99784E4BE1
:10064C005A784D4BDB7800F01DFA4B4BDB78002BC6
:10065C0006D0494BDB78013BDAB2474BDA7005E048
:10066C00464B474A47494448FFF738FF424BDB7833
:10067C001A463F4B1B7819461046FFF7ADFEC0E0FB
:10068C0000F0A8F90346002B07D008213E4800F0E3
:10069C006AFF40213C4800F066FF334B9B78022BED
:1006AC001FD1354B5B781A46324B1B681344324AC8
:1006BC0092781344622B0ADC2E4B1B68DAB22E4B59
:1006CC001A702E4B2E4A2F492B48FFF707FF2A4B47
:1006DC00DB781A46264B1B7819461046FFF77CFE32
:1006EC008FE0244B1B68224A127811461846FFF7FC
:1006FC0073FE86E000F06EF90346002B07D0102144
:10070C00214800F030FF80211F4800F02CFF164BD1
:10071C009B78022B1FD1184B1B781A46164B5B7813
:10072C001A44144B1B681344622B0ADC114B1B68D4
:10073C00DAB2114B9A70114B114A12490E48FFF75D
:10074C00CDFE0D4BDB781A46094B1B78194610462B
:10075C00FFF742FE55E0074B1B68054A127811461D
:10076C001846FFF739FE4CE0080000203C00002042
:10077C00040000200C0000200000002003000020DA
:10078C000200002001000020000C014000F022F9C2
:10079C000346002B08D020211C4800F0E4FE4FF447
:1007AC0080711A4800F0DFFE194B9B78022B1FD189
:1007BC00184B1B781A46184B1B681344154A927831
:1007CC001344622B0ADC144B1B68DAB2114B5A70BF
:1007DC00124B134A13490F48FFF780FE0D4BDB7881
:1007EC001A46114B1B7819461046FFF7F5FD07E02A
:1007FC00094B1B680C4A127811461846FFF7ECFDA2
:10080C0000BF00BF0837BD4680BD00BF000C0140D3
:10081C0008000020000000200C0000200300002035
:10082C0002000020010000200400002090B583B0DD
:10083C0000AF0023FB717CE0FA79FB795049895CAD
:10084C00504AD154FB79022B1AD0022B22DC002BFC
:10085C0002D0012B0AD01DE0FC7901214A4800F09E
:10086C0053FE03461A46464B1A5513E0FC790221F7
:10087C00454800F049FE03461A46414B1A5509E01B
:10088C00FC790421404800F03FFE03461A463C4BDD
:10089C001A5500BFFB793A4AD25CFB793949CB5CDB
:1008AC009A4205D1FA79FB793549895C374AD1549A
:1008BC00FB79364AD35C002B17D1FB79344A0021E3
:1008CC00D154FB79334A52F82330132B08DCFB79D3
:1008DC00304A52F8232001322E4941F8232025E0DA
:1008EC00FB792D4A0121D15420E0FB79294A0021C2
:1008FC0042F82310FB79294A52F82330092B08DCE3
:10090C00FB79264A52F823200132244941F823204E
:10091C000CE0FB79214A002142F82310FB791E4A96
:10092C000021D154FB791A4A0121D154FB790133AE
:10093C00FB71FB79022B7FF67FAF194B1B78012BD8
:10094C0006D1184B1B78013BDAB2164B1A7005E036
:10095C00154B1B78013BDAB2134B1A700E4B5B78BC
:10096C00012B09D10E4B1B78012B05D00F4B1B789B
:10097C00013BDAB20D4B1A7000BF0C37BD4690BD6F
:10098C00480000204C000020000C014050000020CA
:10099C004400002054000020400000206000002093
:1009AC000400002010000020120000201100002084
:1009BC0080B400AF064B1B78002B04D1044B3222C1
:1009CC001A70012300E000231846BD4680BC704716
:1009DC001100002080B400AF064B1B78002B04D113
:1009EC00044B32221A70012300E000231846BD4646
:1009FC0080BC70471200002080B400AF064B1B78FF
:100A0C00002B04D1044B64221A70012300E0002354
:100A1C001846BD4680BC70471000002080B483B0DF
:100A2C0000AF0346FB71FB79022B01D9002307E0D1
:100A3C00FB79064AD35C012B01D1012300E0002392
:100A4C0018460C37BD4680BC704700BF44000020E0
:100A5C0080B483B000AF0346FB71FB79022B01D944
:100A6C00FF2307E0FB79064AD35C012B01D101235C
:100A7C0000E0002318460C37BD4680BC704700BF11
:100A8C004000002090B583B000AF044608461146E4
:100A9C001A462346FB710346BB710B467B7113460A
:100AAC003B713A797979BB790B449A420FDD00227C
:100ABC0008213C4800F03FFD01222021394800F07C
:100ACC003AFD01221021374800F035FD26E03A7935
:100ADC00BB799A420FD901220821324800F02BFD34
:100AEC00002220212F4800F026FD012210212D4844
:100AFC0000F021FD12E03A79BB799A420ED801221E
:100B0C000821284800F017FD01222021254800F07B
:100B1C0012FD00221021234800F00DFD3A79F979DD
:100B2C00BB790B449A4210DD012240211D4800F094
:100B3C0002FD00224FF480711A4800F0FCFC0122E7
:100B4C008021184800F0F7FC28E03A79FB799A42AA
:100B5C0010D901224021134800F0EDFC01224FF482
:100B6C008071104800F0E7FC002280210D4800F055
:100B7C00E2FC13E03A79FB799A420FD8002240212B
:100B8C00084800F0D8FC01224FF48071054800F0B1
:100B9C00D2FC01228021034800F0CDFC00BF0C37B1
:100BAC00BD4690BD000C014080B500AF00F0C2F90D
:100BBC0000F00CF800F092F800F044F8024801F054
:100BCC0023F9FFF7A3FCFCE76C00002080B590B084
:100BDC0000AF07F1180328220021184601F0CCFCC5
:100BEC003B1D00221A605A609A60DA601A61022377
:100BFC00BB610123BB621023FB6200237B6307F103
:100C0C001803184600F0C8FC0346002B01D000F076
:100C1C00C7F80F237B600023BB600023FB6000231D
:100C2C003B6100237B613B1D0021184600F034FF23
:100C3C000346002B01D000F0B3F800BF4037BD468F
:100C4C0080BD000080B586B000AF07F1080300221C
:100C5C001A605A609A60DA603B4600221A605A6049
:100C6C001D4B4FF080421A601B4B4FF4FA525A60E6
:100C7C00194B00229A60184B0A22DA60164B00229C
:100C8C001A61154B00229A61134801F06DF8034666
:100C9C00002B01D000F084F84FF48053BB6007F1B7
:100CAC00080319460C4801F003FA0346002B01D047
:100CBC0000F076F800233B6000237B603B4619462E
:100CCC00054801F0CBFB0346002B01D000F068F87F
:100CDC0000BF1837BD4680BD6C00002080B586B0C3
:100CEC0000AF07F1080300221A605A609A60DA60BC
:100CFC00284B9B69274A43F004039361254B9B695E
:100D0C0003F004037B607B68224B9B69214A43F010
:100D1C00080393611F4B9B6903F008033B603B681E
:100D2C0000224BF6FF711C4800F005FC00224FF628
:100D3C00F8711A4800F0FFFB4BF6FF73BB60012300
:100D4C00FB6000233B6102237B6107F1080319461A
:100D5C00114800F05FFA0723BB600023FB600023FF
:100D6C003B6107F1080319460C4800F053FA4FF6A3
:100D7C00F873BB600123FB6000233B6102237B61A2
:100D8C0007F108031946054800F044FA00BF18376C
:100D9C00BD4680BD0010024000080140000C01401F
:100DAC0080B400AF72B600BFFEE7000080B485B01F
:100DBC0000AF154B9B69144A43F001039361124B2E
:100DCC009B6903F00103BB60BB680F4BDB690E4AE8
:100DDC0043F08053D3610C4BDB6903F080537B6091
:100DEC007B680A4B5B68FB60FB6823F0E063FB608D
:100DFC00FB6843F08063FB60044AFB68536000BFF0
:100E0C001437BD4680BC7047001002400000014002
:100E1C0080B584B000AF78607B681B68B3F1804FFD
:100E2C0013D10C4BDB690B4A43F00103D361094B23
:100E3C00DB6903F00103FB60FB68002200211C202E
:100E4C0000F0B1F91C2000F0CAF900BF1037BD4604
:100E5C0080BD00BF0010024080B400AFFEE780B43C
:100E6C0000AFFEE780B400AFFEE780B400AFFEE752
:100E7C0080B400AFFEE780B400AF00BFBD4680BCBD
:100E8C00704780B400AF00BFBD4680BC704780B4D3
:100E9C0000AF00BFBD4680BC704780B500AF00F00E
:100EAC008FF800BF80BD000080B500AF024800F095
:100EBC00F7FF00BF80BD00BF6C00002080B400AF06
:100ECC0000BFBD4680BC704780B582B000AF786073
:100EDC007B681B68B3F1804F01D1FFF7A7FC00BF03
:100EEC000837BD4680BD00000C480D490D4A002353
:100EFC0002E0D458C4500433C4188C42F9D30A4AC3
:100F0C000A4C002301E013600432A242FBD3FFF72A
:100F1C00D5FF01F00DFBFFF747FE704700000020E6
:100F2C0020000020E025000820000020B800002050
:100F3C00FEE7000080B500AF084B1B68074A43F082
:100F4C0010031360032000F023F90F2000F008F8C1
:100F5C00FFF72CFF0023184680BD00BF0020024085
:100F6C0080B582B000AF7860124B1A68124B1B78B8
:100F7C0019464FF47A73B3FBF1F3B2FBF3F3184653
:100F8C0000F03BF90346002B01D001230EE07B68F7
:100F9C000F2B0AD8002279684FF0FF3000F003F9CC
:100FAC00064A7B681360002300E0012318460837CB
:100FBC00BD4680BD140000201C000020180000203D
:100FCC0080B400AF054B1B781A46054B1B681344C5
:100FDC00034A136000BFBD4680BC70471C00002054
:100FEC00B400002080B400AF024B1B681846BD460D
:100FFC0080BC7047B400002080B485B000AF78602E
:10100C007B6803F00703FB600C4BDB68BB60BA68C2
:10101C004FF6FF031340BB60FB681A02BB68134317
:10102C0043F0BF6343F40033BB60044ABB68D36036
:10103C0000BF1437BD4680BC704700BF00ED00E018
:10104C0080B400AF044BDB681B0A03F0070318469F
:10105C00BD4680BC704700BF00ED00E080B483B09B
:10106C0000AF0346FB7197F90730002B0BDBFB79C4
:10107C0003F01F02064997F907305B09012000FABB
:10108C0002F241F8232000BF0C37BD4680BC7047EC
:10109C0000E100E080B483B000AF03463960FB711F
:1010AC0097F90730002B0ADB3B68DAB20C4997F949
:1010BC0007301201D2B20B4483F800230AE03B68DC
:1010CC00DAB20849FB7903F00F03043B1201D2B2E8
:1010DC000B441A7600BF0C37BD4680BC704700BF6E
:1010EC0000E100E000ED00E080B489B000AFF860F2
:1010FC00B9607A60FB6803F00703FB61FB69C3F11D
:10110C000703042B28BF0423BB61FB690433062BA4
:10111C0002D9FB69033B00E000237B614FF0FF32F7
:10112C00BB6902FA03F3DA43BB681A407B699A4045
:10113C004FF0FF317B6901FA03F3D9437B680B4015
:10114C00134318462437BD4680BC704780B582B027
:10115C0000AF78607B68013BB3F1807F01D3012342
:10116C000FE00A4A7B68013B53600F214FF0FF30C0
:10117C00FFF790FF054B00229A60044B07221A6080
:10118C00002318460837BD4680BD00BF10E000E0C4
:10119C0080B582B000AF78607868FFF72DFF00BF94
:1011AC000837BD4680BD80B586B000AF0346B96038
:1011BC007A60FB7300237B61FFF742FF78617A68EA
:1011CC00B9687869FFF790FF024697F90F3011461E
:1011DC001846FFF75FFF00BF1837BD4680BD80B5CE
:1011EC0082B000AF0346FB7197F907301846FFF742
:1011FC0035FF00BF0837BD4680BD80B582B000AF5B
:10120C0078607868FFF7A2FF034618460837BD469A
:10121C0080BD000080B48BB000AF786039600023D3
:10122C007B6200233B6248E101227B6A02FA03F3F2
:10123C00FB613B681B68FA691340BB61BA69FB69C7
:10124C009A4240F037813B685B68A34A93425ED078
:10125C00A14A934275D8A14A934258D09F4A9342CF
:10126C006FD89F4A934252D09D4A934269D89D4A67
:10127C0093424CD09B4A934263D89B4A934246D0AC
:10128C00994A93425DD8122B2AD8122B59D801A215
:10129C0052F823F01B130008F5120008071300087E
:1012AC00491300084F1300084F1300084F13000890
:1012BC004F1300084F1300084F1300084F1300087A
:1012CC004F1300084F1300084F1300084F1300086A
:1012DC004F1300084F130008FD12000811130008EB
:1012EC00824A934213D02CE03B68DB683B6229E0D6
:1012FC003B68DB6804333B6224E03B68DB68083303
:10130C003B621FE03B68DB680C333B621AE03B68D6
:10131C009B68002B02D104233B6213E03B689B6863
:10132C00012B05D108233B627B68FA691A6109E03D
:10133C0008233B627B68FA695A6103E000233B6235
:10134C0000E000BFBB69FF2B01D87B6801E07B6824
:10135C0004337B61BB69FF2B02D87B6A9B0002E0E4
:10136C007B6A083B9B003B617B691A680F213B69D8
:10137C0001FA03F3DB431A40396A3B6901FA03F3C0
:10138C001A437B691A603B685B6803F08053002B3F
:10139C0000F09080564B9B69554A43F001039361D2
:1013AC00534B9B6903F00103BB60BB68514A7B6ADA
:1013BC009B08023352F82330FB607B6A03F0030373
:1013CC009B000F2202FA03F3DB43FA681340FB6025
:1013DC007B68494A93420DD07B68484A934207D0B8
:1013EC007B68474A934201D1022304E0032302E0C5
:1013FC00012300E000237A6A02F00302920093407A
:10140C00FA681343FB603B497B6A9B080233FA681A
:10141C0041F823203B685B6803F48033002B06D033
:10142C00384B1A683749BB6913430B6006E0354BE0
:10143C001A68BB69DB43334913400B603B685B683C
:10144C0003F40033002B06D02E4B5A682D49BB6990
:10145C0013434B6006E02B4B5A68BB69DB432949AD
:10146C0013404B603B685B6803F48013002B06D081
:10147C00244B9A682349BB6913438B6006E0214BCC
:10148C009A68BB69DB431F4913408B603B685B6800
:10149C0003F40013002B06D01A4BDA681949BB6908
:1014AC001343CB6006E0174BDA68BB69DB43154985
:1014BC001340CB607B6A01337B623B681A687B6AA2
:1014CC0022FA03F3002B7FF4AFAE00BF00BF2C3722
:1014DC00BD4680BC704700BF0000321000003110C8
:1014EC00000022100000211000001210000011104A
:1014FC00001002400000014000080140000C0140B7
:10150C00001001400004014080B485B000AF786049
:10151C000B467B807B689A687B881340002B02D03B
:10152C000123FB7301E00023FB73FB7B184614378C
:10153C00BD4680BC704780B483B000AF78600B466A
:10154C007B8013467B707B78002B03D07A887B687A
:10155C001A6103E07B881A047B681A6100BF0C37A0
:10156C00BD4680BC704780B485B000AF78600B4638
:10157C007B807B68DB68FB607A88FB6813401A040D
:10158C00FB68D9437B880B401A437B681A6100BF08
:10159C001437BD4680BC704780B586B000AF78600C
:1015AC007B68002B01D101236CE27B681B6803F084
:1015BC000103002B00F08780924B5B6803F00C0357
:1015CC00042B0CD08F4B5B6803F00C03082B12D14F
:1015DC008C4B5B6803F48033B3F5803F0BD1894BA4
:1015EC001B6803F40033002B6CD07B685B68002B0A
:1015FC0068D1012346E27B685B68B3F5803F06D176
:10160C00804B1B687F4A43F4803313602EE07B6869
:10161C005B68002B0CD17B4B1B687A4A23F480331C
:10162C001360784B1B68774A23F4802313601DE00A
:10163C007B685B68B3F5A02F0CD1724B1B68714AA9
:10164C0043F4802313606F4B1B686E4A43F4803362
:10165C0013600BE06B4B1B686A4A23F480331360F6
:10166C00684B1B68674A23F4802313607B685B68B4
:10167C00002B13D0FFF7B6FC386108E0FFF7B2FC83
:10168C0002463B69D31A642B01D90323FAE15D4B63
:10169C001B6803F40033002BF0D014E0FFF7A2FC1E
:1016AC00386108E0FFF79EFC02463B69D31A642BB5
:1016BC0001D90323E6E1534B1B6803F40033002BE1
:1016CC00F0D100E000BF7B681B6803F00203002B25
:1016DC0063D04C4B5B6803F00C03002B0BD0494BD5
:1016EC005B6803F00C03082B1CD1464B5B6803F4BE
:1016FC008033002B16D1434B1B6803F00203002BE5
:10170C0005D07B681B69012B01D00123BAE13D4B4D
:10171C001B6823F0F8027B685B69DB0039491343D3
:10172C000B603AE07B681B69002B20D0364B012202
:10173C001A60FFF757FC386108E0FFF753FC0246CC
:10174C003B69D31A022B01D903239BE12D4B1B6858
:10175C0003F00203002BF0D02A4B1B6823F0F80295
:10176C007B685B69DB00274913430B6015E0264B54
:10177C0000221A60FFF736FC386108E0FFF732FCF4
:10178C0002463B69D31A022B01D903237AE11D4B84
:10179C001B6803F00203002BF0D17B681B6803F07D
:1017AC000803002B3AD07B689B69002B19D0174B90
:1017BC0001221A60FFF716FC386108E0FFF712FCF3
:1017CC0002463B69D31A022B01D903235AE10D4B74
:1017DC005B6A03F00203002BF0D0012000F0A6FAA4
:1017EC001CE00A4B00221A60FFF7FCFB38610FE08B
:1017FC00FFF7F8FB02463B69D31A022B08D90323E7
:10180C0040E100BF0010024000004242800442420E
:10181C009E4B5B6A03F00203002BE9D17B681B68CB
:10182C0003F00403002B00F0A6800023FB75974BFC
:10183C00DB6903F08053002B0DD1944BDB69934A89
:10184C0043F08053D361914BDB6903F08053BB6051
:10185C00BB680123FB758E4B1B6803F48073002B54
:10186C0018D18B4B1B688A4A43F480731360FFF7C3
:10187C00B9FB386108E0FFF7B5FB02463B69D31AA8
:10188C00642B01D90323FDE0814B1B6803F48073A7
:10189C00002BF0D07B68DB68012B06D17B4B1B6ADD
:1018AC007A4A43F0010313622DE07B68DB68002B5E
:1018BC000CD1764B1B6A754A23F001031362734BF0
:1018CC001B6A724A23F0040313621CE07B68DB681A
:1018DC00052B0CD16D4B1B6A6C4A43F0040313624D
:1018EC006A4B1B6A694A43F0010313620BE0674BB6
:1018FC001B6A664A23F001031362644B1B6A634A3A
:10190C0023F0040313627B68DB68002B15D0FFF710
:10191C0069FB38610AE0FFF765FB02463B69D31AA5
:10192C0041F28832934201D90323ABE0574B1B6A37
:10193C0003F00203002BEED014E0FFF753FB3861E9
:10194C000AE0FFF74FFB02463B69D31A41F288329B
:10195C00934201D9032395E04C4B1B6A03F002031D
:10196C00002BEED1FB7D012B05D1484BDB69474A9F
:10197C0023F08053D3617B68DB69002B00F08180FE
:10198C00424B5B6803F00C03082B61D07B68DB696E
:10199C00022B46D13F4B00221A60FFF723FB386124
:1019AC0008E0FFF71FFB02463B69D31A022B01D953
:1019BC00032367E0354B1B6803F00073002BF0D159
:1019CC007B681B6AB3F5803F08D1304B5B6823F40E
:1019DC0000327B689B682D4913434B602B4B5B6833
:1019EC0023F474127B68196A7B685B6A0B43274982
:1019FC0013434B60274B01221A60FFF7F3FA38614F
:101A0C0008E0FFF7EFFA02463B69D31A022B01D923
:101A1C00032337E01D4B1B6803F00073002BF0D041
:101A2C002FE01C4B00221A60FFF7DCFA386108E04B
:101A3C00FFF7D8FA02463B69D31A022B01D90323CC
:101A4C0020E0124B1B6803F00073002BF0D118E060
:101A5C007B68DB69012B01D1012313E00B4B5B6825
:101A6C00FB60FB6803F480327B681B6A9A4206D1E8
:101A7C00FB6803F470127B685B6A9A4201D0012305
:101A8C0000E0002318461837BD4680BD0010024008
:101A9C00007000406000424280B584B000AF7860B6
:101AAC0039607B68002B01D10123D0E06A4B1B68A5
:101ABC0003F007033A689A4210D9674B1B6823F06E
:101ACC00070265493B6813430B60634B1B6803F0CB
:101ADC0007033A689A4201D00123B8E07B681B687F
:101AEC0003F00203002B20D07B681B6803F0040377
:101AFC00002B05D0594B5B68584A43F4E0635360A4
:101B0C007B681B6803F00803002B05D0534B5B6804
:101B1C00524A43F460535360504B5B6823F0F0021D
:101B2C007B689B684D4913434B607B681B6803F0D3
:101B3C000103002B40D07B685B68012B07D1474B1E
:101B4C001B6803F40033002B15D101237FE07B6865
:101B5C005B68022B07D1414B1B6803F00073002B11
:101B6C0009D1012373E03D4B1B6803F00203002BEA
:101B7C0001D101236BE0394B5B6823F003027B68D6
:101B8C005B68364913434B60FFF72CFAF8600AE0A8
:101B9C00FFF728FA0246FB68D31A41F288329342C7
:101BAC0001D9032353E02D4B5B6803F00C027B68D7
:101BBC005B689B009A42EBD1274B1B6803F0070331
:101BCC003A689A4210D2244B1B6823F00702224930
:101BDC003B6813430B60204B1B6803F007033A6808
:101BEC009A4201D0012332E07B681B6803F00403A6
:101BFC00002B08D0194B5B6823F4E0627B68DB6830
:101C0C00164913434B607B681B6803F00803002BD9
:101C1C0009D0124B5B6823F460527B681B69DB00B4
:101C2C000E4913434B6000F021F802460B4B5B68E6
:101C3C001B0903F00F030A49CB5C22FA03F3094A90
:101C4C001360094B1B681846FFF78AF900231846E6
:101C5C001037BD4680BD00BF00200240001002407E
:101C6C00C8250008140000201800002090B48AB089
:101C7C0000AF2A4B3C1D0FCB84E80F0040F2012330
:101C8C003B800023FB610023BB6100237B620023AC
:101C9C007B6100233B62224B5B68FB61FB6903F0B9
:101CAC000C03042B02D0082B03D02DE01D4B3B6200
:101CBC002DE0FB699B0C03F00F0307F12802134482
:101CCC0013F8243C7B61FB6903F48033002B13D0A5
:101CDC00134B5B685B0C03F0010307F12802134400
:101CEC0013F8283CBB617B690E4A02FB03F2BB690B
:101CFC00B2FBF3F37B6204E07B690B4A02FB03F358
:101D0C007B627B6A3B6202E0064B3B6200BF3B6A34
:101D1C0018462837BD4690BC704700BFB825000850
:101D2C000010024000127A0000093D0080B485B01A
:101D3C0000AF78600A4B1B680A4AA2FB03235B0ABC
:101D4C007A6802FB03F3FB6000BFFB685A1EFA6063
:101D5C00002BF9D100BF00BF1437BD4680BC7047C3
:101D6C0014000020D34D621080B582B000AF7860B3
:101D7C007B68002B01D1012341E07B6893F83D3057
:101D8C00DBB2002B06D17B68002283F83C207868FC
:101D9C00FFF73EF87B68022283F83D207B681A68C7
:101DAC007B6804331946104600F06AFA7B680122FE
:101DBC0083F846207B68012283F83E207B68012251
:101DCC0083F83F207B68012283F840207B68012246
:101DDC0083F841207B68012283F842207B68012232
:101DEC0083F843207B68012283F844207B6801221E
:101DFC0083F845207B68012283F83D200023184698
:101E0C000837BD4680BD000080B485B000AF786057
:101E1C007B6893F83D30DBB2012B01D0012335E018
:101E2C007B68022283F83D207B681B68DA687B683C
:101E3C001B6842F00102DA607B681B68164A934209
:101E4C0009D07B681B68B3F1804F04D07B681B689A
:101E5C00124A934211D17B681B689B6803F00703FD
:101E6C00FB60FB68062B10D07B681B681A687B68CC
:101E7C001B6842F001021A6007E07B681B681A6855
:101E8C007B681B6842F001021A6000231846143765
:101E9C00BD4680BC704700BF002C014000040040D0
:101EAC0080B582B000AF78607B681B681B6903F05B
:101EBC000203022B22D17B681B68DB6803F0020350
:101ECC00022B1BD17B681B686FF002021A617B68C6
:101EDC0001221A777B681B689B6903F00303002BB4
:101EEC0003D0786800F0B1F905E0786800F0A4F947
:101EFC00786800F0B3F97B6800221A777B681B685E
:101F0C001B6903F00403042B22D17B681B68DB687C
:101F1C0003F00403042B1BD17B681B686FF00402D5
:101F2C001A617B6802221A777B681B689B6903F431
:101F3C004073002B03D0786800F087F905E07868CF
:101F4C0000F07AF9786800F089F97B6800221A773A
:101F5C007B681B681B6903F00803082B22D17B6884
:101F6C001B68DB6803F00803082B1BD17B681B681C
:101F7C006FF008021A617B6804221A777B681B6871
:101F8C00DB6903F00303002B03D0786800F05DF9E4
:101F9C0005E0786800F050F9786800F05FF97B682C
:101FAC0000221A777B681B681B6903F01003102B47
:101FBC0022D17B681B68DB6803F01003102B1BD14C
:101FCC007B681B686FF010021A617B6808221A7715
:101FDC007B681B68DB6903F44073002B03D07868C3
:101FEC0000F033F905E0786800F026F9786800F025
:101FFC0035F97B6800221A777B681B681B6903F034
:10200C000103012B0ED17B681B68DB6803F0010315
:10201C00012B07D17B681B686FF001021A6178688D
:10202C00FEF752FF7B681B681B6903F08003802B53
:10203C000ED17B681B68DB6803F08003802B07D113
:10204C007B681B686FF080021A61786800F067FA91
:10205C007B681B681B6903F04003402B0ED17B6827
:10206C001B68DB6803F04003402B07D17B681B68BF
:10207C006FF040021A61786800F0F9F87B681B6811
:10208C001B6903F02003202B0ED17B681B68DB68D7
:10209C0003F02003202B07D17B681B686FF0200214
:1020AC001A61786800F032FA00BF0837BD4680BD6F
:1020BC0080B584B000AF786039607B6893F83C30B1
:1020CC00012B01D10223B3E07B68012283F83C2071
:1020DC007B68022283F83D207B681B689B68FB6051
:1020EC00FB6823F07703FB60FB6823F47F43FB6002
:1020FC007B681B68FA689A603B681B68B3F5005FE5
:10210C003ED0B3F5005F00F28780B3F5805F00F03E
:10211C008580B3F5805F7FD8702B1AD0702B7BD85D
:10212C00602B50D0602B77D8502B3CD0502B73D8D1
:10213C00402B58D0402B6FD8302B64D0302B6BD821
:10214C00202B60D0202B67D8002B5CD0102B5AD0C2
:10215C0062E07B6818683B6899683B685A683B6822
:10216C00DB6800F05CF97B681B689B68FB60FB68B4
:10217C0043F07703FB607B681B68FA689A604EE05B
:10218C007B6818683B6899683B685A683B68DB68F1
:10219C0000F045F97B681B689A687B681B6842F401
:1021AC0080429A603BE07B6818683B6859683B68E2
:1021BC00DB681A4600F0BCF87B681B685021184697
:1021CC0000F013F92BE07B6818683B6859683B6892
:1021DC00DB681A4600F0DAF87B681B686021184649
:1021EC0000F003F91BE07B6818683B6859683B6892
:1021FC00DB681A4600F09CF87B681B684021184687
:10220C0000F0F3F80BE07B681A683B681B68194612
:10221C00104600F0EAF802E000BF00E000BF7B6867
:10222C00012283F83D207B68002283F83C200023A8
:10223C0018461037BD4680BD80B483B000AF7860BF
:10224C0000BF0C37BD4680BC704780B483B000AF74
:10225C00786000BF0C37BD4680BC704780B483B03B
:10226C0000AF786000BF0C37BD4680BC704780B4AF
:10227C0083B000AF786000BF0C37BD4680BC7047A0
:10228C0080B485B000AF786039607B681B68FB60F8
:10229C007B68254A934207D07B68B3F1804F03D00B
:1022AC007B68224A934208D1FB6823F07003FB60E1
:1022BC003B685B68FA681343FB607B681A4A93427D
:1022CC0007D07B68B3F1804F03D07B68174A9342E9
:1022DC0008D1FB6823F44073FB603B68DB68FA6849
:1022EC001343FB60FB6823F080023B685B6913437C
:1022FC00FB607B68FA681A603B689A687B68DA62F4
:10230C003B681A687B689A627B68074A934203D1E0
:10231C003B681A697B681A637B6801225A6100BFAB
:10232C001437BD4680BC7047002C014000040040AF
:10233C0080B487B000AFF860B9607A60FB681B6A44
:10234C007B61FB681B6A23F00102FB681A62FB6865
:10235C009B693B613B6923F0F0033B617B681B018C
:10236C003A6913433B617B6923F00A037B617A6909
:10237C00BB6813437B61FB683A699A61FB687A69B5
:10238C001A6200BF1C37BD4680BC704780B487B052
:10239C0000AFF860B9607A60FB681B6A23F010022A
:1023AC00FB681A62FB689B697B61FB681B6A3B617B
:1023BC007B6923F470437B617B681B037A6913434D
:1023CC007B613B6923F0A0033B61BB681B013A694D
:1023DC0013433B61FB687A699A61FB683A691A623C
:1023EC0000BF1C37BD4680BC704780B485B000AFC1
:1023FC00786039607B689B68FB60FB6823F0700336
:10240C00FB603A68FB68134343F00703FB607B688F
:10241C00FA689A6000BF1437BD4680BC704780B420
:10242C0087B000AFF860B9607A603B60FB689B686E
:10243C007B617B6923F47F437B613B681A027B6879
:10244C001A43BB6813437A6913437B61FB687A694F
:10245C009A6000BF1C37BD4680BC704780B485B005
:10246C0000AF786039607B6893F83C30012B01D168
:10247C00022341E07B68012283F83C207B68022226
:10248C0083F83D207B681B685B68FB607B681B687E
:10249C009B68BB60FB6823F07003FB603B681B68A8
:1024AC00FA681343FB607B681B68FA685A607B68A8
:1024BC001B68144A934209D07B681B68B3F1804FA8
:1024CC0004D07B681B68104A93420CD1BB6823F084
:1024DC008003BB603B685B68BA681343BB607B6876
:1024EC001B68BA689A607B68012283F83D207B6880
:1024FC00002283F83C20002318461437BD4680BCCC
:10250C00704700BF002C01400004004080B483B031
:10251C0000AF786000BF0C37BD4680BC704780B4FC
:10252C0083B000AF786000BF0C37BD4680BC7047ED
:10253C0070B500260C4D0D4C641BA410A64209D19D
:10254C0000F022F800260A4D0A4C641BA410A64287
:10255C0005D170BD55F8043B98470136EEE755F8A8
:10256C00043B98470136F2E7D8250008D825000827
:10257C00D8250008DC25000803460244934200D10C
:10258C00704703F8011BF9E7F8B500BFF8BC08BCAD
:10259C009E467047F8B500BFF8BC08BC9E46704715
:1025AC00407924301912027800100000020304054F
:1025BC00060708090A0B0C0D0E0F10100000000086
:0C25CC00000000000102030406070809DB
:0425D80031010008C5
:0425DC000D010008E5
:1025E0000F0A051E040000000101010001000000A7
:1025F000643232000024F4001000000001000000EA
:0400000508000EF5EC
:00000001FF
